{
  "_format": "hh-sol-artifact-1",
  "contractName": "accessControlService",
  "sourceName": "contracts/accessControl.sol",
  "abi": [
    {
      "inputs": [],
      "stateMutability": "nonpayable",
      "type": "constructor"
    },
    {
      "anonymous": false,
      "inputs": [
        {
          "indexed": true,
          "internalType": "address",
          "name": "granter",
          "type": "address"
        },
        {
          "indexed": true,
          "internalType": "address",
          "name": "receiver",
          "type": "address"
        },
        {
          "indexed": true,
          "internalType": "bytes32",
          "name": "role",
          "type": "bytes32"
        }
      ],
      "name": "PermissionGranted",
      "type": "event"
    },
    {
      "anonymous": false,
      "inputs": [
        {
          "indexed": true,
          "internalType": "address",
          "name": "granter",
          "type": "address"
        },
        {
          "indexed": true,
          "internalType": "address",
          "name": "receiver",
          "type": "address"
        },
        {
          "indexed": true,
          "internalType": "bytes32",
          "name": "role",
          "type": "bytes32"
        }
      ],
      "name": "PermissionRevoked",
      "type": "event"
    },
    {
      "anonymous": false,
      "inputs": [
        {
          "indexed": true,
          "internalType": "address",
          "name": "granter",
          "type": "address"
        },
        {
          "indexed": true,
          "internalType": "address",
          "name": "receiver",
          "type": "address"
        },
        {
          "indexed": true,
          "internalType": "bytes32",
          "name": "role",
          "type": "bytes32"
        }
      ],
      "name": "regrantPermisson",
      "type": "event"
    },
    {
      "inputs": [],
      "name": "DISTRIBUTOR_ROLE",
      "outputs": [
        {
          "internalType": "bytes32",
          "name": "",
          "type": "bytes32"
        }
      ],
      "stateMutability": "view",
      "type": "function"
    },
    {
      "inputs": [],
      "name": "DIST_PHAR_RELATION",
      "outputs": [
        {
          "internalType": "bytes32",
          "name": "",
          "type": "bytes32"
        }
      ],
      "stateMutability": "view",
      "type": "function"
    },
    {
      "inputs": [],
      "name": "MANUFACTURER_ROLE",
      "outputs": [
        {
          "internalType": "bytes32",
          "name": "",
          "type": "bytes32"
        }
      ],
      "stateMutability": "view",
      "type": "function"
    },
    {
      "inputs": [],
      "name": "MANU_DIST_RELATION",
      "outputs": [
        {
          "internalType": "bytes32",
          "name": "",
          "type": "bytes32"
        }
      ],
      "stateMutability": "view",
      "type": "function"
    },
    {
      "inputs": [],
      "name": "PHARMACY_ROLE",
      "outputs": [
        {
          "internalType": "bytes32",
          "name": "",
          "type": "bytes32"
        }
      ],
      "stateMutability": "view",
      "type": "function"
    },
    {
      "inputs": [
        {
          "internalType": "address",
          "name": "_distributor",
          "type": "address"
        },
        {
          "internalType": "string",
          "name": "taxCode",
          "type": "string"
        },
        {
          "internalType": "string",
          "name": "lisenceNo",
          "type": "string"
        }
      ],
      "name": "addDistributor",
      "outputs": [],
      "stateMutability": "nonpayable",
      "type": "function"
    },
    {
      "inputs": [
        {
          "internalType": "address",
          "name": "_manufacturer",
          "type": "address"
        },
        {
          "internalType": "string",
          "name": "taxCode",
          "type": "string"
        },
        {
          "internalType": "string",
          "name": "lisenceNo",
          "type": "string"
        }
      ],
      "name": "addManufacturer",
      "outputs": [],
      "stateMutability": "nonpayable",
      "type": "function"
    },
    {
      "inputs": [
        {
          "internalType": "address",
          "name": "_pharmacy",
          "type": "address"
        },
        {
          "internalType": "string",
          "name": "taxCode",
          "type": "string"
        },
        {
          "internalType": "string",
          "name": "lisenceNo",
          "type": "string"
        }
      ],
      "name": "addPharmacy",
      "outputs": [],
      "stateMutability": "nonpayable",
      "type": "function"
    },
    {
      "inputs": [
        {
          "internalType": "address",
          "name": "_distributorAddress",
          "type": "address"
        }
      ],
      "name": "checkIsDistributor",
      "outputs": [
        {
          "internalType": "bool",
          "name": "",
          "type": "bool"
        }
      ],
      "stateMutability": "view",
      "type": "function"
    },
    {
      "inputs": [
        {
          "internalType": "address",
          "name": "_manufacturerAddress",
          "type": "address"
        }
      ],
      "name": "checkIsManufacturer",
      "outputs": [
        {
          "internalType": "bool",
          "name": "",
          "type": "bool"
        }
      ],
      "stateMutability": "view",
      "type": "function"
    },
    {
      "inputs": [
        {
          "internalType": "address",
          "name": "_pharmacyAddress",
          "type": "address"
        }
      ],
      "name": "checkIsPharmacy",
      "outputs": [
        {
          "internalType": "bool",
          "name": "",
          "type": "bool"
        }
      ],
      "stateMutability": "view",
      "type": "function"
    },
    {
      "inputs": [
        {
          "internalType": "address",
          "name": "_distributorAddress",
          "type": "address"
        }
      ],
      "name": "getDistributor",
      "outputs": [
        {
          "components": [
            {
              "internalType": "bool",
              "name": "isActive",
              "type": "bool"
            },
            {
              "internalType": "string",
              "name": "taxCode",
              "type": "string"
            },
            {
              "internalType": "string",
              "name": "licenseNo",
              "type": "string"
            }
          ],
          "internalType": "struct allRoleBaseStruct",
          "name": "",
          "type": "tuple"
        }
      ],
      "stateMutability": "view",
      "type": "function"
    },
    {
      "inputs": [
        {
          "internalType": "address",
          "name": "_manufacturerAddress",
          "type": "address"
        }
      ],
      "name": "getManufacture",
      "outputs": [
        {
          "components": [
            {
              "internalType": "bool",
              "name": "isActive",
              "type": "bool"
            },
            {
              "internalType": "string",
              "name": "taxCode",
              "type": "string"
            },
            {
              "internalType": "string",
              "name": "licenseNo",
              "type": "string"
            }
          ],
          "internalType": "struct allRoleBaseStruct",
          "name": "",
          "type": "tuple"
        }
      ],
      "stateMutability": "view",
      "type": "function"
    },
    {
      "inputs": [
        {
          "internalType": "address",
          "name": "_pharmaAddress",
          "type": "address"
        }
      ],
      "name": "getPharma",
      "outputs": [
        {
          "components": [
            {
              "internalType": "bool",
              "name": "isActive",
              "type": "bool"
            },
            {
              "internalType": "string",
              "name": "taxCode",
              "type": "string"
            },
            {
              "internalType": "string",
              "name": "licenseNo",
              "type": "string"
            }
          ],
          "internalType": "struct allRoleBaseStruct",
          "name": "",
          "type": "tuple"
        }
      ],
      "stateMutability": "view",
      "type": "function"
    },
    {
      "inputs": [
        {
          "internalType": "address",
          "name": "_adminAddress",
          "type": "address"
        }
      ],
      "name": "isAdmin",
      "outputs": [
        {
          "internalType": "bool",
          "name": "",
          "type": "bool"
        }
      ],
      "stateMutability": "view",
      "type": "function"
    },
    {
      "inputs": [
        {
          "internalType": "address",
          "name": "",
          "type": "address"
        }
      ],
      "name": "isDistributor",
      "outputs": [
        {
          "internalType": "bool",
          "name": "isActive",
          "type": "bool"
        },
        {
          "internalType": "string",
          "name": "taxCode",
          "type": "string"
        },
        {
          "internalType": "string",
          "name": "licenseNo",
          "type": "string"
        }
      ],
      "stateMutability": "view",
      "type": "function"
    },
    {
      "inputs": [
        {
          "internalType": "address",
          "name": "",
          "type": "address"
        }
      ],
      "name": "isManufacturer",
      "outputs": [
        {
          "internalType": "bool",
          "name": "isActive",
          "type": "bool"
        },
        {
          "internalType": "string",
          "name": "taxCode",
          "type": "string"
        },
        {
          "internalType": "string",
          "name": "licenseNo",
          "type": "string"
        }
      ],
      "stateMutability": "view",
      "type": "function"
    },
    {
      "inputs": [
        {
          "internalType": "address",
          "name": "",
          "type": "address"
        }
      ],
      "name": "isPharmacy",
      "outputs": [
        {
          "internalType": "bool",
          "name": "isActive",
          "type": "bool"
        },
        {
          "internalType": "string",
          "name": "taxCode",
          "type": "string"
        },
        {
          "internalType": "string",
          "name": "licenseNo",
          "type": "string"
        }
      ],
      "stateMutability": "view",
      "type": "function"
    },
    {
      "inputs": [
        {
          "internalType": "address",
          "name": "_distributor",
          "type": "address"
        },
        {
          "internalType": "string",
          "name": "taxCode",
          "type": "string"
        },
        {
          "internalType": "string",
          "name": "lisenceNo",
          "type": "string"
        }
      ],
      "name": "regrantDistributor",
      "outputs": [],
      "stateMutability": "nonpayable",
      "type": "function"
    },
    {
      "inputs": [
        {
          "internalType": "address",
          "name": "_manufacturer",
          "type": "address"
        }
      ],
      "name": "regrantManufacture",
      "outputs": [],
      "stateMutability": "nonpayable",
      "type": "function"
    },
    {
      "inputs": [
        {
          "internalType": "address",
          "name": "_pharmacy",
          "type": "address"
        }
      ],
      "name": "regrantPharmacy",
      "outputs": [],
      "stateMutability": "nonpayable",
      "type": "function"
    },
    {
      "inputs": [
        {
          "internalType": "address",
          "name": "_distributor",
          "type": "address"
        }
      ],
      "name": "removeDistributor",
      "outputs": [],
      "stateMutability": "nonpayable",
      "type": "function"
    },
    {
      "inputs": [
        {
          "internalType": "address",
          "name": "_manufacturer",
          "type": "address"
        }
      ],
      "name": "removeManufacturer",
      "outputs": [],
      "stateMutability": "nonpayable",
      "type": "function"
    },
    {
      "inputs": [
        {
          "internalType": "address",
          "name": "_pharmacy",
          "type": "address"
        }
      ],
      "name": "removePharmacy",
      "outputs": [],
      "stateMutability": "nonpayable",
      "type": "function"
    }
  ],
  "bytecode": "0x6080604052348015600f57600080fd5b50600080546001600160a01b03191633179055611703806100316000396000f3fe608060405234801561001057600080fd5b50600436106101585760003560e01c806383c38968116100c3578063c102d3b01161007c578063c102d3b01461034b578063dfb0fda31461035e578063e160404114610371578063eb5849c41461039d578063f0bd87cc146103c4578063f0c58ea7146103d957600080fd5b806383c38968146102d75780638f0c86fa146102ea578063965288b0146102fd578063993df8c614610312578063a38030fb14610325578063ba7b6e391461033857600080fd5b806357c1f9e21161011557806357c1f9e214610233578063599d68cb1461024657806368d8ad8a146102595780636a75323f146102855780636a992c9f146102985780636f499a05146102ab57600080fd5b8063027e177e1461015d57806317d4a4911461019757806324d7806c146101b95780632a4af440146101eb57806331e3c8d514610200578063459ce12214610213575b600080fd5b6101847fe014aefd0fb470a23eb6cf83666fa7d6bad6f90a8064c84fddcbe316d03e21fd81565b6040519081526020015b60405180910390f35b6101aa6101a53660046112a0565b6103ee565b60405161018e93929190611308565b6101db6101c73660046112a0565b6000546001600160a01b0390811691161490565b604051901515815260200161018e565b6101fe6101f93660046113e4565b610526565b005b6101fe61020e3660046112a0565b61067a565b6102266102213660046112a0565b61077e565b60405161018e919061145d565b6101fe6102413660046112a0565b610937565b6101fe6102543660046113e4565b610a25565b6101db6102673660046112a0565b6001600160a01b031660009081526002602052604090205460ff1690565b6101fe6102933660046112a0565b610b70565b6101fe6102a63660046113e4565b610c5e565b6101db6102b93660046112a0565b6001600160a01b031660009081526003602052604090205460ff1690565b6102266102e53660046112a0565b610db2565b6101aa6102f83660046112a0565b610e52565b61018460008051602061166e83398151915281565b6102266103203660046112a0565b610e78565b6101fe6103333660046113e4565b610f18565b6101fe6103463660046112a0565b611072565b6101fe6103593660046112a0565b611160565b6101aa61036c3660046112a0565b61125e565b6101db61037f3660046112a0565b6001600160a01b031660009081526001602052604090205460ff1690565b6101847f964f0530f3c20e4620db75eb4411f0aff147e019e6f7bbdd7661e3acaf5e664e81565b61018460008051602061168e83398151915281565b6101846000805160206116ae83398151915281565b60016020819052600091825260409091208054918101805460ff90931692610415906114ab565b80601f0160208091040260200160405190810160405280929190818152602001828054610441906114ab565b801561048e5780601f106104635761010080835404028352916020019161048e565b820191906000526020600020905b81548152906001019060200180831161047157829003601f168201915b5050505050908060020180546104a3906114ab565b80601f01602080910402602001604051908101604052809291908181526020018280546104cf906114ab565b801561051c5780601f106104f15761010080835404028352916020019161051c565b820191906000526020600020905b8154815290600101906020018083116104ff57829003601f168201915b5050505050905083565b6000546001600160a01b031633146105595760405162461bcd60e51b8152600401610550906114e5565b60405180910390fd5b6001600160a01b03831660009081526002602052604090205460ff16156105c25760405162461bcd60e51b815260206004820181905260248201527f4164647265737320697320616c72656164792061204469737472696275746f726044820152606401610550565b60408051606081018252600180825260208083018681528385018690526001600160a01b038816600090815260029092529390208251815460ff19169015151781559251919291908201906106179082611583565b506040820151600282019061062c9082611583565b505060405160008051602061168e83398151915291506001600160a01b0385169033907fb51bac4eed03cca62828ed8dc0d017ca8975db91f2ac5ef03b2b517a409778c690600090a4505050565b6000546001600160a01b031633146106a45760405162461bcd60e51b8152600401610550906114e5565b6001600160a01b03811660009081526001602052604090205460ff161561071c5760405162461bcd60e51b815260206004820152602660248201527f4d616e7566616374757265204164647265737320697320616c726561647920676044820152651c985b9d195960d21b6064820152608401610550565b6001600160a01b0381166000818152600160208190526040808320805460ff19169092179091555160008051602061166e833981519152929133917f1036058caca552ac1b97b8a25c9ac892f31e4b06f44132e0eef068bcf68f593a9190a450565b6107a4604051806060016040528060001515815260200160608152602001606081525090565b6001600160a01b03821660009081526001602052604090205460ff166107dc5760405162461bcd60e51b815260040161055090611642565b6001600160a01b038216600090815260016020818152604092839020835160608101909452805460ff161515845291820180549184019161081c906114ab565b80601f0160208091040260200160405190810160405280929190818152602001828054610848906114ab565b80156108955780601f1061086a57610100808354040283529160200191610895565b820191906000526020600020905b81548152906001019060200180831161087857829003601f168201915b505050505081526020016002820180546108ae906114ab565b80601f01602080910402602001604051908101604052809291908181526020018280546108da906114ab565b80156109275780601f106108fc57610100808354040283529160200191610927565b820191906000526020600020905b81548152906001019060200180831161090a57829003601f168201915b5050505050815250509050919050565b6000546001600160a01b031633146109615760405162461bcd60e51b8152600401610550906114e5565b6001600160a01b03811660009081526002602052604090205460ff166109c95760405162461bcd60e51b815260206004820152601c60248201527f41646472657373206973206e6f742061204469737472696275746f72000000006044820152606401610550565b6001600160a01b038116600081815260026020526040808220805460ff191690555160008051602061168e833981519152929133917f7b4a556ddac6b7150a01ce15d1878346f946dea643132c9b70528e780336e2429190a450565b6000546001600160a01b03163314610a4f5760405162461bcd60e51b8152600401610550906114e5565b6001600160a01b03831660009081526003602052604090205460ff1615610ab85760405162461bcd60e51b815260206004820152601d60248201527f4164647265737320697320616c7265616479206120506861726d6163790000006044820152606401610550565b60408051606081018252600180825260208083018681528385018690526001600160a01b038816600090815260039092529390208251815460ff1916901515178155925191929190820190610b0d9082611583565b5060408201516002820190610b229082611583565b50506040516000805160206116ae83398151915291506001600160a01b0385169033907fb51bac4eed03cca62828ed8dc0d017ca8975db91f2ac5ef03b2b517a409778c690600090a4505050565b6000546001600160a01b03163314610b9a5760405162461bcd60e51b8152600401610550906114e5565b6001600160a01b03811660009081526001602052604090205460ff16610c025760405162461bcd60e51b815260206004820152601d60248201527f41646472657373206973206e6f742061204d616e7566616374757265720000006044820152606401610550565b6001600160a01b038116600081815260016020526040808220805460ff191690555160008051602061166e833981519152929133917f7b4a556ddac6b7150a01ce15d1878346f946dea643132c9b70528e780336e2429190a450565b6000546001600160a01b03163314610c885760405162461bcd60e51b8152600401610550906114e5565b6001600160a01b03831660009081526001602052604090205460ff1615610cfb5760405162461bcd60e51b815260206004820152602160248201527f4164647265737320697320616c72656164792061204d616e75666163747572656044820152603960f91b6064820152608401610550565b60408051606081018252600180825260208083018681528385018690526001600160a01b0388166000908152918390529390208251815460ff1916901515178155925191929190820190610d4f9082611583565b5060408201516002820190610d649082611583565b505060405160008051602061166e83398151915291506001600160a01b0385169033907fb51bac4eed03cca62828ed8dc0d017ca8975db91f2ac5ef03b2b517a409778c690600090a4505050565b610dd8604051806060016040528060001515815260200160608152602001606081525090565b6001600160a01b03821660009081526003602052604090205460ff16610e105760405162461bcd60e51b815260040161055090611642565b6001600160a01b038216600090815260036020908152604091829020825160608101909352805460ff1615158352600181018054919284019161081c906114ab565b6002602052600090815260409020805460018201805460ff9092169291610415906114ab565b610e9e604051806060016040528060001515815260200160608152602001606081525090565b6001600160a01b03821660009081526002602052604090205460ff16610ed65760405162461bcd60e51b815260040161055090611642565b6001600160a01b038216600090815260026020908152604091829020825160608101909352805460ff1615158352600181018054919284019161081c906114ab565b6000546001600160a01b03163314610f425760405162461bcd60e51b8152600401610550906114e5565b6001600160a01b03831660009081526002602052604090205460ff1615610fba5760405162461bcd60e51b815260206004820152602660248201527f4469737472696275746f72204164647265737320697320616c726561647920676044820152651c985b9d195960d21b6064820152608401610550565b60408051606081018252600180825260208083018681528385018690526001600160a01b038816600090815260029092529390208251815460ff191690151517815592519192919082019061100f9082611583565b50604082015160028201906110249082611583565b505060405160008051602061168e83398151915291506001600160a01b0385169033907f1036058caca552ac1b97b8a25c9ac892f31e4b06f44132e0eef068bcf68f593a90600090a4505050565b6000546001600160a01b0316331461109c5760405162461bcd60e51b8152600401610550906114e5565b6001600160a01b03811660009081526003602052604090205460ff166111045760405162461bcd60e51b815260206004820152601960248201527f41646472657373206973206e6f74206120506861726d616379000000000000006044820152606401610550565b6001600160a01b038116600081815260036020526040808220805460ff19169055516000805160206116ae833981519152929133917f7b4a556ddac6b7150a01ce15d1878346f946dea643132c9b70528e780336e2429190a450565b6000546001600160a01b0316331461118a5760405162461bcd60e51b8152600401610550906114e5565b6001600160a01b03811660009081526003602052604090205460ff16156111ff5760405162461bcd60e51b815260206004820152602360248201527f506861726d616379204164647265737320697320616c7265616479206772616e6044820152621d195960ea1b6064820152608401610550565b6001600160a01b038116600081815260036020526040808220805460ff19166001179055516000805160206116ae833981519152929133917f1036058caca552ac1b97b8a25c9ac892f31e4b06f44132e0eef068bcf68f593a9190a450565b6003602052600090815260409020805460018201805460ff9092169291610415906114ab565b80356001600160a01b038116811461129b57600080fd5b919050565b6000602082840312156112b257600080fd5b6112bb82611284565b9392505050565b6000815180845260005b818110156112e8576020818501810151868301820152016112cc565b506000602082860101526020601f19601f83011685010191505092915050565b831515815260606020820152600061132360608301856112c2565b828103604084015261133581856112c2565b9695505050505050565b634e487b7160e01b600052604160045260246000fd5b600082601f83011261136657600080fd5b813567ffffffffffffffff8111156113805761138061133f565b604051601f8201601f19908116603f0116810167ffffffffffffffff811182821017156113af576113af61133f565b6040528181528382016020018510156113c757600080fd5b816020850160208301376000918101602001919091529392505050565b6000806000606084860312156113f957600080fd5b61140284611284565b9250602084013567ffffffffffffffff81111561141e57600080fd5b61142a86828701611355565b925050604084013567ffffffffffffffff81111561144757600080fd5b61145386828701611355565b9150509250925092565b60208152815115156020820152600060208301516060604084015261148560808401826112c2565b90506040840151601f198483030160608501526114a282826112c2565b95945050505050565b600181811c908216806114bf57607f821691505b6020821081036114df57634e487b7160e01b600052602260045260246000fd5b50919050565b6020808252602f908201527f496e76616c696420526f6c653a204f6e6c79204f776e65722063616e2063616c60408201526e36103a3434b990233ab731ba34b7b760891b606082015260800190565b601f82111561157e57806000526020600020601f840160051c8101602085101561155b5750805b601f840160051c820191505b8181101561157b5760008155600101611567565b50505b505050565b815167ffffffffffffffff81111561159d5761159d61133f565b6115b1816115ab84546114ab565b84611534565b6020601f8211600181146115e557600083156115cd5750848201515b600019600385901b1c1916600184901b17845561157b565b600084815260208120601f198516915b8281101561161557878501518255602094850194600190920191016115f5565b50848210156116335786840151600019600387901b60f8161c191681555b50505050600190811b01905550565b602080825260119082015270149bdb19481a5cc81b9bdd0815985b1a59607a1b60408201526060019056feeefb95e842a3287179d933b4460be539a1d5af11aa8b325bb45c5c8dc92de4edfbd454f36a7e1a388bd6fc3ab10d434aa4578f811acbbcf33afb1c697486313c2f3a5455f35aeca177ac653592f277fbe2fbafef01081a2030451bb2fb41c91da2646970667358221220ab3429c118fbf475be62b1185fecb851a91c9e6c10093dd9fbc811a51d378a1064736f6c634300081c0033",
  "linkReferences": {},
  "deployedLinkReferences": {}
}